:0300000002418535
:1041850078FEE4F6D8FD9000007FFF7E01E4F0A301
:0A419500DFFCDEFA7581C702003E70
:1040F400781CA6B208A6B308A6B4E4781BF6123559
:10410400DCED6480FDEC781B1235F5781B1235DC90
:1041140078AC1235F530000B53A2E753B1BF75A24A
:044124007EC2002235
:0841BF008F828E83E493FF223E
:103FB4008E0D8F0EA2AF9249C2AF850DC3850EC27E
:103FC4008DC1E4F5C4F5C5F5C6900015E0FF7E008B
:103FD40064AA700B900016E06455700375C7030063
:103FE40075C40575C50A75C609EF64AA4E700B90B1
:103FF4000016E06455700375C703E4F5C4F5C5F510
:06400400C6A24992AF22A2
:10400A008E0D8F0EA2AF9249C2AF850DC3850EC227
:10401A00E4F5C4F5C5F5C6900015E0FF7E0064AA74
:10402A00700B900016E06455700375C7030075C4E1
:10403A000575C50A75C609EF64AA4E700B9000167D
:10404A00E06455700375C70CE4F5C4F5C5F5C6A25E
:04405A004992AF22B6
:07419F00C2931241A6D29366
:0F41A600E4FFFE0FBF00010EEF64014E70F52223
:10412800E4FEEEC39408748094805013C293EF5455
:1041380080FD24FF9283D293EF25E0FF0E80E322D7
:103E2000C2A9D294D283D2931241A6C294D2831251
:103E3000419FC283C2931241A6D293204704C283FA
:103E40008002D28312419F20470DAF0912412812F0
:103E500041A612419F8034E4FFFBEBC394067480BB
:103E60009480500FC293EF339283D293EF25E0FFFB
:103E70000B80E7E4FBEBC3941074809480500C74C7
:103E8000312BF8E6FF1241280B80EAD294D2A92206
:10416800E4FEEEC39408748094805010EF13929389
:0D417800EFC313FFD29400C2940E80E62224
:103C6400AC07C2A900C293C29400D29400D293ECD0
:103C7400706FC29300C294007F4012416800C293E7
:103C840000D29400D29300C29300C294007FC01269
:103C9400416800E4FDEDC39408748094805039E4D5
:103CA400F50AF50AF509C3E509940874809480506F
:103CB4001FE50A25E0F50AE509903B9B932431F8BA
:103CC400E6FFED903B93935F6002050A050980D6F9
:103CD400AF0A1241680D80BD00C29300D29400D295
:103CE400937863E65406FDEC6401700674802DFD40
:103CF400800474882DFD00C29300C29400AF0512A5
:0E3D0400416800C29300D29400D293D2A9224B
:103ABD0040407676404040403838404040400454C5
:103ACD004040405C1C0740404040545C40406D7796
:103ADD0073404040385C775E4073385C775E4039A8
:103AED00406C3877394040396C3840404040387C24
:103AFD004040406C6E6C40405E40404040405E5CDB
:103B0D00074040405B79505C404040711C38384064
:103B1D00403977384040405C7171404040405C54C2
:103B2D00404040385C775E405E3900404040710453
:103B3D00380740405E77404040405E07404040407F
:103B4D007C4040405C547C40405C71717C40771CF3
:103B5D00075C5C544040404079505040403F4040ED
:103B6D006D790740763840405B3876384073396D53
:103B7D007340404040403F065B4F666D7D077F6F51
:103B8D00777C395E797101020408102040800606A9
:0E3B9D000504030201000606060606060606DB
:1022B40078BAE6FF541FF514E4F515C248C24AC2C1
:1022C4004BC24CC22CC21478B1F6EF542064206087
:1022D4000302250BE514123657231D012333022371
:1022E4004503236204236905236906236D072376C6
:1022F4000B23A00C23CF0D23D60E23FB0F241A157A
:10230400243616245317247218248E1924C21D242B
:10231400D61E24E91F000026B178B1768C7857E6E2
:10232400C313FE08E613FFE48F128E110224137800
:10233400B1768D784FE65407FFE48F12F51102242D
:102344001378B1768E7856E675F005A4FFAEF0E406
:102354008F128E11F510F50F7515010226B178B1A3
:10236400764F0224EBD22C800478B1765378C002E5
:1023740024DC78B176957860E65403FFE48F12F597
:1023840011F510F50FEF2401F512E43511F511E400
:102394003510F510E4350FF50F0226B17860E654D8
:1023A4001C641078B1700576200226B176967860A8
:1023B400E6541CFFE48F12F511F510F50FAE11ADC4
:1023C40010AC0F78021235B602258C78B1769702DC
:1023D40026B1900000E054C0700778B17619022647
:1023E400B1900000E054C0644078B17005761802E2
:1023F40026B1761A0226B178B1769B7860E65480CD
:10240400648070057512148004E4751264F511F586
:1024140010F50F0226B178B1764078661235DC8F5C
:10242400128E118D108C0F900000E054047058022D
:102434002501D22C78C01235DC8F128E118D108CB0
:102444000F900000E0540470030225010225637814
:10245400B1764178C41235DC8F128E118D108C0F39
:10246400900000E054047003022501022563D22C7D
:1024740078C01235DC8F128E118D108C0F900000F5
:10248400E0540470028076022563900000E0540357
:10249400700778B176040226B1900000E05403641A
:1024A40001700778B176020226B1900000E054036F
:1024B400640260030226B178B176030226B190006B
:1024C40000E0540478B17005761E0226B1761F022E
:1024D40026B178B17653785C1235DC8F128E118D6B
:1024E400108C0F8018D2487859E6FE08E6FF7C036A
:1024F4007DE812367D8F128E118D108C0F784FE689
:102504005407F5150226B178BAE654C0F9FB7A00EF
:102514007053E51424F66038240A60030226B1D20D
:102524004878BB1235DC8F128E118D108C0F784FCA
:10253400E65407F515D39401748094804003022671
:10254400B12032030226B174032515F5150226B114
:10255400D24878A31235DC8F128E118D108C0FE4C3
:10256400F5150226B1EB64404A704BE51414601C67
:1025740014603514603924E4602E241F600302269D
:10258400B1D24878BB1235DC8F12801378B17685CE
:10259400900009E0FCA3E0FDA3E0FEA3E0F5128EA9
:1025A400118D108C0F0226B178B176070226B1780E
:1025B400B176090226B1E9648060030226B178B1DC
:1025C400762078B7E624FE60251460541470030264
:1025D400265A1470030226831470030226972405D6
:1025E40060030226B17856E678B8F60226B178621E
:1025F400E6640470030226AD7862E6640A7003029E
:1026040026A07862E6640F7002806E7862E6641435
:102614007002802F7862E6641E60030226B1803067
:102624007861E6641E70030226AD7861E664327058
:102634000280697861E6643C7002803D7861E664FA
:1026440050700678B8760480647861E66464705DDE
:1026540078B8760580577863E65406700678B876BD
:1026640001800D7863E654066402700478B876023B
:102674007863E654066404703478B87603802E7860
:102684004FE6540870028021784FE65408640870BD
:102694001C80097863E654016401700678B87602F8
:1026A400800B7863E65401700478B8760130211DFC
:1026B40078B17694203D0FAE48EE3395E08549120B
:1026C4008E11F510F50F751502C24880463022119F
:1026D40078BAE654206420603A78B1761CC2488007
:1026E4003230060878B1760BC24880273029087842
:1026F400B1760FC248801C30250878B1761DC248D7
:102704008011304202800630200930150678B176F7
:102714000AC248301B20204711D24C78BAE6541F15
:102724007021D24AD24BC2218019900000E054C0DB
:102734006480700F8009303C06D295D2118004C2A7
:1027440095C211751306AF13EF3395E0FED3EF94E2
:102754000FEE64809480500A74312FF8E4F6051368
:1027640080E4304703E4F531204A7130476EE4F5E4
:1027740013AF13EF3395E0FED3EF9405EE6480942A
:1027840080505978B7E6FD6009EF64014E7003ED9F
:10279400801478B8E6FF6013E513FD3395E0FCED93
:1027A40064034C7006EF903B838024AF13EF3395A2
:1027B400E0FE78B1E6543F75F006A424BDF582E44A
:1027C400343AF583E5822FF582E5833EF583E4937D
:1027D400FF74312513F8A60705138095304A0302C8
:1027E40028ED20481A78B1E6FF548064806010EF29
:1027F400544064407003203706202C0302290C3017
:10280400474CE4F513AF13EF3395E0FED3EF940593
:10281400EE648094805037E47B0AFAF9F8AF12AE84
:1028240011AD10AC0F1234FDAF0374092513F8A6D3
:1028340007AF12AE11AD10AC0FE47B0AFAF9F8122F
:1028440034FD8F128E118D108C0F051380B7302C30
:1028540004C2498002D249751305AF13EF3395E0E2
:10286400FEC364809480405D74059513F51630476B
:102874003574092513F8E6FD701B30491820480CFF
:1028840078B1E654406440702630372374312516FD
:10289400F8E4F6801AED903B8393FD74312516F825
:1028A400A605C249800974312516F8E6547FF6E579
:1028B400152401FDE433FCEDB50706ECB50602C2B0
:1028C4004915138095E515600CC3740595152431DD
:1028D400F8E64480F6300D30E514702C204705539B
:1028E40031068000433140801FE4F513AF13EF330A
:1028F40095E0FED3EF9405EE64809480500A743121
:102904002FF8E4F6051380E4302C0B20030878BF7D
:10291400E62430F8E4F678BAE654C0FF7E00701A74
:1029240020470D204A2B3032028023433720802158
:10293400303202801143370C8017EF64404E70111F
:10294400204708204A0B4337028006204A034337B6
:1029540001303D030229DA78BFE6FF7E00701EF5E0
:1029640013AD13ED3395E0FCC3ED9410EC64809447
:1029740080506374312DF876FF051380E4C3EF941F
:1029840001EE64809480404E78BFE6940A7480948B
:10299400805043E4F513AF13EF3395E0FEC3EF9497
:1029A40006EE64809480502E78BFE6FFC3740A9FBD
:1029B400FFE49400FE74832FF582743B3EF583E4B8
:1029C40093FF74312513F8A60774312513F8E644F0
:1029D40080F6051380C0204705204A0E800C301570
:1029E40003433710301003433780204706304B032E
:0429F40075364022D2
:103E9000C2AF7F057E001241485392FC5393FC53FE
:103EA00094F95395F9E4FFFE12414830800F3081B8
:103EB0000C30910930920678B276FF802620810678
:103EC00078B27624801D20800678B2760D8014208A
:103ED000910678B27623800B78B2209204760C801B
:103EE0000276FF5392FC4393035394F9439506D211
:0A3EF00081D280D291D292D2AF228B
:10003E007580FB7590EF75A0FFE4F59A759BFF75C3
:10004E009CFF759DFF759E04F5927593FFF5947553
:10005E0095FFF5967597FF5394BF43954043E8047B
:10006E0075A27E438E01758911758C80F58AC288C2
:10007E0075A88075B80575F80675470390000912C6
:10008E0036260000000AC295C2114392185393E718
:10009E007F01123C64C247750901123E20C24775AA
:1000AE000918123E20C247750929123E20C2477513
:1000BE000902123E20C247750940123E20C2477502
:1000CE0009E3123E20D294D293D2837FF47E0112A2
:1000DE004148C2AF75AA0575AA0A75A9BFD2AF432A
:1000EE00E8021236BCD23CD295D211E4FF120003C4
:1000FE00D217900018123626000000005394BF430A
:10010E009540C2AF75AA0575AA0A75A9BFD2AF20D0
:10011E00230302059D30010302059D123E909000BF
:10012E001574AAF078B2E6F4700302059DD228E4A5
:10013E00FF120003301B05E4F52DC21BD21778B257
:10014E00E6640D7002D23A78B2E664247002D240B0
:10015E0078B2E6640C7002D22D78B2E664236003A6
:03016E0002059BEC
:1001710078BAE6FF541FF508EF54206420600302AB
:10018100033CE50812365701BC01021002022B04A0
:10019100022E05023106023407024B0B026C0C02DF
:1001A100940E02B90F02E11502F41602F617030DBF
:1001B1001803131903321D0000059B7858E66402E9
:1001C10018467007F60876040204AE7858E664040F
:1001D10018467007F608760A0204AE7858E6640AF3
:1001E10018467007F60876140204AE7858E66414CF
:1001F10018467007F60876280204AEC37858E694CC
:100201002818E69400400576000876020204AE78CC
:100211004FE65407C39404748094804007E654F871
:10022100F602059B784F0602059B0202E102030DCF
:1002310002030D78C012360D00000000E478B9F613
:1002410078BF760178BA1602059B202A03020307BC
:100251007860E65403C39402748094804007E654A6
:10026100FCF602059B78600602059B202A0778BAF6
:10027100060602059B7860E6541CC39410748094B2
:10028100804007E654E3F602059B7860740426F685
:1002910002059B202A02806E900000E054C0C394A6
:1002A10080748094804007E0543FF002059B9000E9
:1002B10000E02440F002059B202A0C78BAE654C0E5
:1002C100F6442BF602059B7860E654806480700743
:1002D100E6547FF602059B7860E64480F602059BB2
:1002E10078C012360D00000000E478B9F678BF76C8
:1002F100018013801778C012360D00000000E478E9
:10030100B9F678BF760178BA0602059B123BAB02BB
:10031100059B900000E05403C394027480948040D4
:1003210007E054FCF002059B900000E004F0020598
:100331009B900000E06404F002059B78BAE654E06B
:1003410064406003020466E50814600302059BE44F
:100351007F0AFEFDFC900009E0F8A3E0F9A3E0FAB2
:10036100A3E0FBD31235A5500D90000912362600EB
:1003710000001402059BE47F14FEFDFC900009E0DF
:10038100F8A3E0F9A3E0FAA3E0FBC31235A5700DD1
:100391009000091236260000003202059BE47F32EC
:1003A100FEFDFC900009E0F8A3E0F9A3E0FAA3E068
:1003B100FBC31235A5700D9000091236260000000E
:1003C1006402059BE47F64FEFDFC900009E0F8A354
:1003D100E0F9A3E0FAA3E0FBC31235A5700D90008C
:1003E10009123626000000C802059BE47FC8FEFD05
:1003F100FC900009E0F8A3E0F9A3E0FAA3E0FBC355
:100401001235A5700D900009123626000001F40284
:10041100059BE47FF47E01FDFC900009E0F8A3E078
:10042100F9A3E0FAA3E0FBC31235A5700D90000912
:10043100123626000003E802059BE47FE87E03FDF7
:10044100FC900009E0F8A3E0F9A3E0FAA3E0FBC304
:100451001235A5500302059B9000091236260000B3
:10046100000A02059B78BAE654E064806003020545
:100471009B78B7E624FE603B146075147003020597
:100481003214700302055D147003020579240560BE
:100491000302059B7856E6C394057480948040045A
:1004A100760180037856067856E678B8F6123F59F9
:1004B10002059B7862E664047005760A0205867877
:1004C10062E6640A7005760F0205577862E6640FEA
:1004D10070047614803A7862E664147004761E80A3
:1004E1003F7862E6641E600302059B76040205976D
:1004F1007861E6641E700576320205867861E664ED
:10050100327004763C804F7861E6643C7009765025
:1005110078B8760402059B7861E6645070087664C9
:1005210078B8760580747861E66464706D761E80B3
:10053100657863E6540664047006E654F9F680565D
:100541007863E6540670040606803A7863E654063A
:1005510064027046060678B87603803E784FE6540A
:10056100087006E64408F6801C784FE654086408D3
:100571007028E654F7F6801E7863E6540164017032
:100581000AE654FEF678B87602800F7863E65401E5
:0A0591007008E64401F678B8760120
:10059B00D201302303020994203A0F20390C202B6F
:1005AB0009204006202D03020994D217203A03029A
:1005BB00077F78BFE660030207577F307E75FDFC2F
:1005CB0078A31235E8C31235A5400302076878A358
:1005DB00300B221235DCAB07AA06A905A804AE48DE
:1005EB00EE3395E0FDFCC3E5499BFFEE9AFEED99DA
:1005FB00FDEC98801F1235DCAB07AA06A905A804F1
:10060B00AE48EE3395E0FDFCE5492BFFEE3AFEEDEF
:10061B0039FDEC38FC1241CF900009123601785BA2
:10062B00E6C3948074809480501D900009E0FCA375
:10063B00E0FDA3E0FEA3E0FFC007E6FBE4FAF9F858
:07064B00D0071234FD801EF0
:10065200785BE6547FF508900009E0F8A3E0F9A37F
:10066200E0FAA3E0FBAF08E4FCFDFE123472900056
:040672000912360132
:10067600900009E0F8A3E0F9A3E0FAA3E0FBC000CC
:100686007857E6C313FE08E613FFE4FCFDD000EB43
:100696002FFFEA3EFEED39FDEC38FC9000091236DC
:1006A60001900009E0FCA3E0FDA3E0FEA3E0FFC08B
:1006B60006C0077857E6FE08E6FBAA06E4F9F8D076
:1006C60007D0061234FD900009123601900009E0A9
:1006D600F8A3E0F9A3E0FAA3E0FBC0007857E6FE32
:1006E60008E6FFE4FCFDD0001234729000091236D1
:1006F600017859E6FE08E6FF7C007D3C1233D5E41E
:10070600FD900009E0F8A3E0F9A3E0FAA3E0FBD32B
:100716001235A5503778761235DC78721235F5C267
:100726003F78A3300B101235DCC3E5499FF549E548
:10073600489EF548800D1235DCEF2549F549EE3522
:1007460048F54878A312360D000000001236BC802A
:100756001178C012360D00000000E478B9F678BFB3
:10076600760178BAE654806480700CF678B7F6089D
:10077600F678B1F61236BCC23A2040030208087871
:10078600BAE6FF542064207020EF541FD3940474FB
:10079600809480500F123D127FC87E00124148E4BB
:1007A600FF1200031236B8804778BAE6FF54C0FD40
:1007B6007C006480701578B7E6C3940674809480D4
:1007C600500306802B78B776018025EF540164012B
:1007D600700578BAF68019ED64404C700878BAE670
:1007E600543FF6800B78BAE654C07004744026F67F
:1007F60078BAE6FF54C064407004EF4401F6C23292
:10080600C240202D0302099478BAE6541FFF7005F2
:05081600D22702099247
:10081B008F0878BAE654206420600302093AE50891
:10082B00123657086501086802086B04087705083B
:10083B00AD0608C20708C90B08C90C08C90D08C9C1
:10084B000E08C90F08DB1508DD1608F41708FB188E
:10085B00091D19092E1D000009920209650208F4F1
:10086B0078BA763FE4F530D23E02099278BFE6645F
:10087B00067042F67BE87A03F9F8C00078C01235AF
:10088B00DCD0001234FD7859A60608A60778BA7694
:10089B003FE4F530D23E785C1235DC12405E78C016
:1008AB00806178BFE66406700CF6081235DC785C64
:1008BB001235F58002805278BA763E02096E202AF4
:1008CB0005D22A020992C22A123D127F64020988BC
:1008DB00801778BFE66406700E78BA0678BFF60804
:1008EB001235DC7866801C802078BA0606020992E5
:1008FB0078BFE66406701278BA0678BFF608123530
:10090B00DC78C41235F502099278BF06E478B9F6A3
:10091B008075D21D78BAE654C0F6900000E044080A
:10092B00F0806478BAE654E0F6741526F6805878B1
:10093B00BAE654E064407037E50824FE60091460A1
:10094B0029240270428013200D10E4FFFEFDFC7879
:10095B00A31235E8C31235A5700578BA068028783E
:10096B00BA765FE4F530C23E801D1236B880187837
:10097B00BAE654806480700F123D127FC87E00125D
:07098B004148E4FF120003E4
:10099200C22D202803020A2B78BAE6FF543F6003D7
:0309A200020A2B1B
:1009A500D2177508E078B2E6640C7020E52FC39580
:1009B500084019C228532F0FEF6004644070067871
:1009C500BA743D26F6E4FF120003C22D78B2E66440
:1009D5000D7026E52FC39508401FC228532F0F78A9
:1009E500BAE6FF543F700BEF4421F654E1F6C20618
:1009F500C232E4FF120003C23A78B2E664247026DC
:100A0500E52FC39508401FC228532F0FC22D78BA72
:100A1500E6543F700A768878B77601C22AC206E4A2
:060A2500FF120003C240B5
:100A2B0078BAE6FF543F7013EF54C06440700C90DB
:100A3B000000E054107004E64401F6301D2A78667D
:100A4B001235DC90000112360178C41235DC9000AF
:100A5B0005123601123DA1C21D1236BC7F647E0009
:100A6B00124148E4FF120003201203020D77C2AFBC
:100A7B00121B13303D08120FDC1229F8802D78BFA2
:100A8B00E6C3940A748094805021052AC3E52A9406
:100A9B0007748094804014E4F52A06D217E6640AA2
:100AAB007009D22112386E8E488F49203D0778BFCE
:100ABB00E6640A601078BAE6FF643F6008EF643EB4
:050ACB006003020D3D77
:100AD000C24678BAE6FF643F6005EF643E70057574
:100AE000080A8003750814E530701778C012360DB7
:100AF00000000000E4F54578761235DC90000D1218
:100B000036010530303E7C90000DE0FCA3E0FDA3F3
:100B1000E0FEA3E0FFFBAA06A905A804C004C005E7
:100B2000C006C00778761235DCD003D002D001D0E1
:100B300000C3EF9BFFEE9AFEED99FDEC98FC12418D
:100B4000CFE47B07FAF9F8C312358F78C0401D1245
:100B500035DC78761235E8EF2BFFEE3AFEED39FD05
:100B6000EC38FC78C01235F50545802712360D00AB
:100B7000000000E4F54578761235DC90000D123661
:100B8000018010C3E530940A748094804005E4F538
:100B900030D23EE545C39508401678C01235DCC01A
:100BA00007AF08AB07E4FAF9F8D0071234FD80105C
:100BB000C3E530942874809480400C78761235DC3C
:100BC00078C01235F5D246204603020D3D203D6324
:100BD00078BFE6640A705C081235DC78721235F56D
:100BE000E478BFF6C22178BB12360D000000007811
:100BF000C012360D00000000D20FE4F548F549D2CE
:100C00003D78BAF61236BCD217E4FF1200037860C2
:100C1000E6548064806003020CAF7FE07EDF7D21BC
:100C2000FC78721235E8C31235A55003020CAFD21E
:100C300022807C78BAE6643F702278C01235DC7876
:100C4000721235F578BA7627E4F548F549785C12E2
:100C500035DC12405E78C01235F5805378BAE66410
:100C60003E704C78721235DC78C01235E8D31235FC
:100C7000A5402478721235E8C00078C01235DCD067
:100C800000C3EF9BFFEE9AFEED99FDEC98FC7850C7
:100C90001235F5D21C80187F011200037F0112006B
:100CA000031236BC78BAE654DFF654C0F6D21720E9
:100CB0001C03020D3DC21C785C1235DC78C0123575
:100CC000F578501235DC78661235F51230E6786624
:100CD00012360D0000000078C412360D000000002E
:100CE00030060C7F011200037F011200038032786E
:100CF000BAE6643B701378C01235DCE47B03FAF982
:100D0000F812347278C01235F5123EFA78A3123513
:100D1000F578C01235DC78BB1235F5123F59123D1B
:100D200012C2061236BC78BAE654DFF654C0F67F1B
:0D0D3000647E00124148E4FF120003D21758
:100D3D0078BAE6FF5420FD7C006420600AEF640A57
:100D4D006005EF64827002D217ED64204C7019902B
:100D5D000017E0C39404748094804006E4F0D21729
:100D6D008006900017E004F0D2AF204303020E9FDF
:100D7D00C243203D03020E1878BAE6541F600302E9
:100D8D000E18302104F5458017C3E54594F07480A5
:100D9D009480400A12386EE4F545D217800205455D
:100DAD0020290F20200C204209200A06200E033096
:100DBD000256053030420DC3E53094147480948092
:100DCD004049803B30200DC3E53094FA7480948007
:100DDD004039802B300A0DC3E53094027480948025
:100DED004029801B300E0DC3E5309406748094802D
:100DFD004019800BC3E530940474809480400CE45A
:100E0D00F530FF1200038003E4F530301B16C3E507
:100E1D002D9408748094804009B23BE4F52DD21EC8
:100E2D008002052D30281AC3E52F94E0748094803C
:100E3D00500F30260A7410252FF52FC2268002D2AE
:010E4D00267E
:100E4E0075080A304547301308D21AD219D21880C5
:100E5E00317892E6C39508402FE4F6201A07202F2A
:100E6E0004D21A801D201907202E04D219801320B7
:100E7E001804D218800C202F02C21A202E02C2197A
:100E8E00C218D217D23480097892068004E4789280
:010E9E00F65D
:100E9F0030175DD2471222B44392185393E7C247DB
:100EAF00750901123E20C247750903123E20C24741
:100EBF00750918123E20C247750929123E20C247F4
:100ECF007509E3123E20D247E4F509123E20D29471
:100EDF00D293D283C2471222B44392185393E7E4BA
:100EEF00FF123C64D294D293D283C217C21E8023C6
:100EFF00301E20301B1B4392185393E7203B047F77
:100F0F000280052045057F01123C64D294D293D212
:100F1F0083C21E78BAE6FF643B601FEF643C601A21
:100F2F00EF643E6015EF645F6010EF649F600B200D
:100F3F001D08202305E4900015F0E4900016F0C280
:100F4F00AF75AA0575AA0A75A9AFD2AF000043877E
:100F5F0002C2AF75AA0575AA0A75A9BFD2AFC2AFF3
:100F6F005392FC5393FC5394F95395F9D281D28049
:100F7F00D291D292FFFE124148308114308011304D
:100F8F00910E30920BC223C201C228532F0F800241
:100F9F00D2235392FC4393035394F9439506D28182
:100FAF00D280D291D292D295309506D245C242804C
:100FBF001730450C78BAE6541F70037545F0D21FF1
:0D0FCF00C245C213C22EC22FD2AF02010ACA
:103BAB0078BFE624FE601E14602414602A14602F74
:103BBB001460342405703A750CA0750B86750A01D8
:103BCB00750900802CE4750C10750B27801FE475AC
:103BDB000CE8750B038016E4750C64F50B800EE492
:103BEB00750C0AF50B8006E4750C01F50BF50AF55F
:103BFB000978B9E6640978C070431235DCC004C09B
:103C0B0005C006C007E47F09FEFDFCAB0CAA0BA99F
:103C1B000AA809123472A804A905AA06AB07D00793
:103C2B00D006D005D004C3EF9BFFEE9AFEED99FDB5
:103C3B00EC98FC78C01235F5E478B9F6221235DC35
:103C4B00EF250CFFEE350BFEED350AFDEC3509FCCF
:083C5B0078C01235F578B906B6
:013C6300223E
:10414800E4FDFCC3ED9FEC9E5015E4FBFA0BBB00AD
:0F415800010AEB64604A70F50DBD00010C80E4B4
:014167002235
:020003008F1A52
:10000500E4FFC2AFEFC394C8748094805014B295D6
:10001500E4FEEEC394397480948050030E80F30F90
:0900250080E2C2955391BFD2AFF5
:01002E0022AF
:0436B800E478BAF602
:1036BC00C2477F007E681241BF784FA607E654F0E0
:1036CC006460600302378CF509C3E50994157480B6
:1036DC0094805016E42509FFE43468FE1241BF744F
:1036EC004F2509F8A607050980DF7FC07E277D09D5
:1036FC007C0078501235E8C31235A54004D24780BF
:10370C0055E47F107E27FDFC78501235E8C3123546
:10371C00A55004D247803F785BE6547FD394407425
:10372C008094804004D247802D78501235DC78018B
:10373C001235C9E47BE07A2EF9F81234FDEFFD7CEA
:10374C0000C3940E74809480400AD3ED941B748053
:10375C0094804002D247E4F509C3E50994157480BE
:10376C009480501EE42509FFE43470FE1241BF74AE
:10377C00002509F582E43400F583EFF0050980D9C2
:10378C00D247304774784F76037860760178637649
:10379C0004785476000876060876020876000876D7
:1037AC000208760008761E785012360D0001D4C03F
:1037BC00785B76010812360D00004E2090000074E4
:1037CC0080F0A31236260000000090000512362669
:1037DC00000000009000091236260000000A90003C
:1037EC000D12362600004E209000111236260000D5
:1037FC004E207862761E1876647856E6C39401746F
:10380C0080948050027601900000E054C07004C295
:10381C003C8002D23C900001E0FCA3E0FDA3E0FE62
:10382C00A3E0FF78661235F5900005E0FCA3E0FDFF
:10383C00A3E0FEA3E0FF78C41235F578C41235DCA2
:10384C0078661235E8C31235A55011900000E0548B
:10385C000370028001C34004D2258002C225E4F526
:01386C002D2E
:01386D002238
:103D1200E4F50AD2479000167455F0784FE654F055
:103D220064607003D38001C3400D784FE6540FF6F0
:103D3200E64460F6123DA130476475C4057F007EFB
:103D42006812400A050AC247E4F509C3E509941559
:103D520074809480502F75C405E42509FFE434680B
:103D6200FE744F2509F8E6FD123FB4E42509FFE48D
:103D72003468FE1241BF744F2509F8E66F6002D223
:103D820047050980C6D3E50A94057480948040A74C
:0E3D92007F011200037F01120003C2478099D7
:013DA0002200
:103DA100E4F50CD2489000167455F030487075C493
:103DB100057F007E7012400A050CC248E4F50BC372
:103DC100E50B941574809480503B75C405E4250B74
:103DD100FFE43470FE7400250BF582E43400F583B2
:103DE100E0FD123FB4E4250BFFE43470FE1241BF45
:103DF1007400250BF582E43400F583E06F6002D294
:103E010048050B80BAD3E50C940574809480409BDF
:0E3E1100C2487F011200037F01120003808D62
:013E1F002280
:103F59007856E6FF7E0008E6FC08E6FD1233D578C0
:103F690054A60608A607785BE6C3948074809480FB
:103F79005019E6FF7E007854E6FC08E6FD1233D5B9
:0B3F8900EEC3137954F7EF1309F72281
:103F9400785BE6547FF5097854E6C313FE08E6130C
:0F3FA400FFAD097C001233E77854A60608A60784
:013FB30022EB
:10386E00C2AFD29675AB0B7F017E00124148E5AB1D
:10387E0020E20843AB04E5AB20E2FBAFAC7E007C5C
:10388E00037DD812367DE47BFFFAF9F81234FD532E
:10389E00ABF7D2AFC3EF9414EE940050030239810C
:1038AE003045030239367863E6540164017037EF10
:1038BE00946CEE94024004D2188002C218C3EF94A6
:1038CE004EEE94024004D2198002C219C3EF943A0C
:1038DE00EE94024004C2208002D220C3EF9430EE58
:1038EE009402403E8036C3EF94A4EE94014004D27D
:1038FE00188002C218C3EF9486EE94014004D219C8
:10390E008002C219C3EF9472EE94014004C220806B
:10391E0002D220C3EF9468EE94014006D21AC2423E
:10392E008051C21AD242804B7863E6540164017012
:10393E0020C3EF949EEE94024006D22ED21980023E
:10394E00C22EC3EF948AEE94024002801EC22F80D4
:10395E0022C3EF94D6EE94014006D22ED2198002E5
:10396E00C22EC3EF94C2EE94014006D22FD21A801B
:10397E0002C22F7863E654016401701B30130CD31E
:10398E00EF94A8EE94025029C21322C3EF94B2EE24
:10399E009402401DD2132230130CD3EF94E0EE9418
:1039AE0001500EC21322C3EF94EAEE94014002D2EC
:0139BE0013F5
:0139BF0022E5
:030033000241B5D2
:0A41B500C2AFD2435391DFD2AF3204
:03003B000239C0C7
:1039C000C0E0C0F0C083C082C0D075D000C000C0CD
:1039D00001C002C003C004C005C006C007C2AF12C8
:1039E00040F478AC1235DCE4FC78AC1235F578ACF8
:1039F0001235DC78021235B678AC1235F5D21220C9
:103A00001203023A9B789B1235DC789F1235F578C9
:103A1000971235DC789B1235F578931235DC789760
:103A20001235F578AC1235DC78931235F5E47F0366
:103A3000FEFDFC78971235E812347278931235E85F
:103A4000EF2BFFEE3AFEED39FDEC38FCC004C0056B
:103A5000C006C007E47F03FEFDFC789B1235E81228
:103A60003472D003D002D001D000EF2BFFEE3AFE2B
:103A7000ED39FDEC38FC789F1235E8EF2BFFEE3A7C
:103A8000FEED39FDEC38FC78AC1235F578AC12352A
:103A9000DC78031235B678AC1235F5D2435391BFBA
:103AA000D2AFD007D006D005D004D003D002D001C9
:0D3AB000D000D0D0D082D083D0F0D0E03252
:1029F80030330BE4F50CF50BF50AF509800D78A3D7
:102A08001235DC8F0C8E0B8D0A8C0978BAE6645F60
:102A18006003022B66C248E530701A78C012360D82
:102A280000000000E4F545AF0CAE0BAD0AAC099010
:102A3800000D1236010530303E6C90000DE0FCA30D
:102A4800E0FDA3E0FEA3E0FBAA06A905A804C3E5F0
:102A58000C9BFFE50B9AFEE50A99FDE50998FC1227
:102A680041CFE47B0AFAF9F8C312358F78C0401CCD
:102A78001235DCEF250CFFEE350BFEED350AFDECCB
:102A88003509FC78C01235F50545802612360D004B
:102A9800000000E4F545AF0CAE0BAD0AAC099000A0
:102AA8000D123601800CE530C3940A4005E4F53078
:102AB800D23EE545C3940A401078C01235DCE47B69
:102AC8000AFAF9F81234FD800FE530C39428400F54
:102AD800AF0CAE0BAD0AAC0978C01235F5D2483050
:102AE800487CE4FFFEFDFC78C01235E8C31235A52A
:102AF800604C200849200D4678BAE6B45F31900052
:102B080018E0F8A3E0F9A3E0FAA3E0FBC00078C05E
:102B18001235DCD000C3EF9BFFEE9AFEED99FDEC79
:102B280098FC90000D123601900000E04410F0E48B
:102B3800FF120003D21D78BAE654C0F6801EE4FFE7
:102B4800120003E4FF120003E4FF12000378BAE660
:102B5800B45F097641900000E054EFF0D21778BADC
:102B6800E6A2E59248C229300D03022C8F304803B3
:102B7800022C8F850C10850B0F850A0E85090D78A0
:102B880059E6FE08E6FFE4FCFD7BE87A03F9F81253
:102B980034728F148E138D128C11785BE6C3948077
:102BA8005017AF10AE0FAD0EAC0DC007E6FBE4FA40
:102BB800F9F8D0071234FD8017785BE6547FF515D5
:102BC800AB10AA0FA90EA80DFFE4FCFDFE1234728B
:102BD8008F108E0F8D0E8C0D7857E6C313FE08E606
:102BE80013FFE4FCFDE5102FF510E50F3EF50FEDA2
:102BF800350EF50EEC350DF50DAF10AE0FAD0EFC24
:102C0800C006C00718E6FE08E6FBAA06E4F9F8D0F5
:102C180007D0061234FD8F108E0F8D0E8C0DAB1061
:102C2800AA0FA90EA80DC0007857E6FE08E6FFE433
:102C3800FCFDD0001234728F108E0F8D0E8C0D7823
:102C4800011235B68F108E0F8D0E8C0D7857E6FE5B
:102C580008E6FFE4FCFD7B09FAF9F8123472E47B1C
:102C680002FAF9F81234FDEF2514FFEE3513FEEDE4
:102C78003512FDEC3511FCAB10AA0FA90EA80DD327
:102C88001235A54002D229302729204826200B03D7
:102C980030150EC210900018123626000000008071
:102CA80010AF0CAE0BAD0AAC09900018123601D269
:102CB80010C227300B20900018E0FCA3E0FDA3E031
:102CC800FEA3E0250CF50CEE350BF50BED350AF5FA
:102CD8000AEC3509805D900018E0FCA3E0FDA3E054
:102CE800FEA3E0FFAB0CAA0BA90AA809C31235A5DD
:102CF800900018E04022F8A3E0F9A3E0FAA3E0FB73
:102D0800E50C9BF50CE50B9AF50BE50A99F50AE538
:102D18000998F509C20D801FFCA3E0FDA3E0FEA3FE
:102D2800E0C3950CF50CEE950BF50BED950AF50A3D
:102D3800EC9509F509D20D78BAE654C064406003F1
:102D4800022DF4FFFEFDFC900009E0F8A3E0F9A3D2
:102D5800E0FAA3E0FBC31235A5601CE4FFFEFDFC0E
:102D680090000DE0F8A3E0F9A3E0FAA3E0FBC3129A
:102D780035A56003300D0CE4F50CF50BF50AF509E3
:102D8800022EDF900009E0F8A3E0F9A3E0FAA3E03F
:102D9800FB90000DE0FCA3E0FDA3E0FEA3E0FF1222
:102DA80034FDE47B02FAF9F81234FD8F108E0F8D92
:102DB8000E8C0DE50C2510FFE50B350FFEE50A35E9
:102DC8000EFDE509350DFC900009E0F8A3E0F9A334
:102DD800E0FAA3E0FB12347290000DE0F8A3E0F9EA
:102DE800A3E0FAA3E0FB1234FD022ED7785BE6C31A
:102DF80094805017AF0CAE0BAD0AAC09C007E6FBC8
:102E0800E4FAF9F8D0071234FD8017785BE6547FAE
:102E1800F515AB0CAA0BA90AA809FFE4FCFDFE12E4
:102E280034728F0C8E0B8D0A8C097858E6F515C311
:102E380013FFE4FCFDFEE50C2FF50CEE350BF50B4E
:102E4800ED350AF50AEC3509F509AF0CAE0BAD0AFC
:102E5800FCC007AF15AB07E4FAF9F8D0071234FD48
:102E68008F0C8E0B8D0A8C09AB0CAA0BA90AA8092A
:102E7800AF15E4FCFDFE1234728F0C8E0B8D0A8C9C
:102E88000978011235B68F0C8E0B8D0A8C093032F9
:102E980046E47B1E7A56F9F81234728F0C8E0B8D2D
:102EA8000A8C09E47B107A27F9F81234FD8F0C8E0E
:102EB8000B8D0A8C09E47B05FAF9F81234FD8F0CA6
:102EC8008E0B8D0A8C09E47B05FAF9F81234728F9F
:102ED8000C8E0B8D0A8C0978BB1235DCAB0CAA0B57
:102EE800A90AA809C31235A56003D38001C3924774
:102EF800AF0CAE0BAD0AAC0978BB1235F5C2042095
:102F0800471620301AE52F540FC3940F4006D230CD
:102F1800D217800B052F8007532FF0C230D217E449
:102F2800FFFEFDFC78BB1235E8C31235A5700BF522
:102F38000D750E32D208C20D8008750D00750EC8C9
:102F4800C208900000E020E30302304A300D03027B
:102F5800304A30080302304A78BAE6FF7004E0309D
:102F6800E212EF6440600302304A900000E020E281
:102F78000302304A900000E0540364017028786628
:102F88001235DC78BB1235E8D31235A5501478C455
:102F98001235DC78BB1235E8C31235A54004D202DD
:102FA8008044C2028040900000E054036402703400
:102FB80078661235DC78BB1235E8D31235A54006A1
:102FC800D20AC20E801A78C41235DC78BB1235E8F2
:102FD800C31235A55006D20EC20A8004C20EC20A18
:102FE800C2028006C202C20AC20E78661235DC78B6
:102FF800BB1235E8D31235A5501878C41235DC78E1
:10300800BB1235E8C31235A54008D20CC235C20739
:10301800803678661235DC78BB1235E8D31235A5D0
:103028004008C20CD235C207801E78C41235DC783D
:10303800BB1235E8C31235A5500EC20CC235D207F3
:103048008006C202C20AC20E20060330250FE52DF3
:10305800C394284005C206C22522052D22302C1B08
:10306800E52DC3940F4005E4F52D8002052DE52DCF
:10307800C3940A5003D20322C2032278B1E630E691
:103088001BE52DC394144005E4F52D8002052DE5BC
:103098002DC3940A5003D23722C23722302112E5B9
:1030A8002DC394284008C221E4F52DD21722052DFE
:1030B8002220472478BAE6543F701D30081A201B96
:1030C8001CC3E52D950EE4950D400AD21BE4F52DA1
:0E30D800D217C20F22052D22E4F52DC21B22B5
:0841C700010204050A1428326C
:101B130078AC1235DC8F0E8E0D8D0C8C0B78761213
:101B230035DC78AC1235F5C212784A1235DCC3EFD6
:101B3300950EFFEE950DFEED950CFDEC950BFC124D
:101B430041CFE47B587A02F9F8C312358F40402025
:101B53003659786E1235DCEF250EFFEE350DFEEDAE
:101B6300350CFDEC350BFC786E1235F578AB06E6DB
:101B7300C394144036D236E47B14FAF8C000786E6E
:101B83001235DCD0001234FD784A1235F5801CC2C0
:101B930036E478ABF6AF0EAE0DAD0CAC0B784A1253
:101BA30035F5786E12360D00000000784E06786029
:101BB300E654036402701EE6541C600FE6541CFFD7
:101BC300BF0403D38001C340028018304402801352
:101BD30075090180117860E65403FFBF010575099B
:101BE300038003750904786A1235DCEF250EFFEED6
:101BF300350DFEED350CFDEC350BFC786A1235F531
:101C0300E509FD3395E0FC784EE6FFC39DEC648067
:101C1300F874809850030222B3E4FCFDFEC004C0B4
:101C230005C006C007786A1235DCD003D002D001A4
:101C3300D0001234FD8F0E8E0D8D0C8C0B78B2E616
:101C4300F50A1235DCE4FC78B21235F57860E65417
:101C53000364026003021DFF78761235DCC3E50ED0
:101C63009FFFE50D9EFEE50C9DFDE50B9CFC1241DF
:101C7300CFE47BC8FAF9F8C312358F402E78B2123D
:101C830035DCAB07AA06A905A804C3E50E9FFFE54B
:101C93000D9EFEE50C9DFDE50B9CFC1241CFE47B04
:101CA300207A4EF9F8C312358F5028AF0EAE0DAD22
:101CB3000CAC0B78B21235F5750908E50925E0245B
:101CC3007EF8E4F608F61509C3E5096480948050AC
:101CD300EA801E750903E50925E0247CF8E6FE0881
:101CE300E6FFE50925E0247EF8A60608A607D50940
:101CF300E578B21235DCAC0DC3E50E9F787FF6ECC8
:101D03009E18F6E4F50FF510750903E50925E0249F
:101D13007EF8E6FE08E62510F510EE350FF50F15F3
:101D230009C3E5096480948050E1E510AE0F7802A1
:101D3300CEA2E713CE13D8F8F5108E0F78B2123572
:101D4300DCAB07AA06A905A804AE0FEE3395E0FDA8
:101D5300FCE5102BFFEE3AFEED39FDEC388F0E8ECD
:101D63000D8D0CF50B78761235DCC3E50E9FFFE580
:101D73000D9EFEE50C9DFDE50B9CFC1241CFE47B23
:101D83000FFAF9F8C312358F5018750907E50925BD
:101D9300E0247EF8A60F08A6101509E509B403EDA3
:101DA3008022750907E50925E0247CF8E6FE08E6AC
:101DB300FFE50925E0247EF8A60608A6071509E530
:101DC30009B404E17886A60F08A610E4F50FF51010
:101DD300750907E50925E0247EF8E6FE08E62510E7
:101DE300F510EE350FF50F1509E509B403E5AE0F50
:101DF300AF107C007D0412343C0221A77860E654C6
:101E03000364016003021FD178761235DCC3E50E4B
:101E13009FFFE50D9EFEE50C9DFDE50B9CFC12412D
:101E2300CFE47B207A4EF9F8C312358F501EAF0EE4
:101E3300AE0DAD0CAC0B78B21235F5750908E5099A
:101E430025E0247EF8E4F608F6D509F278B21235D7
:101E5300DCC3E50E9FF510E50D9EF50F20441F75BD
:101E63000906E50925E0247EF8A60F08A610150942
:101E7300C3E5096480948050E9752B0380337509A9
:101E830006E50925E0247CF8E6FE08E6FFE50925DA
:101E9300E0247EF8A60608A607D509E5E52BD3942A
:101EA300064005752B068009E52BD39405500205E2
:101EB3002B787EA60F08A610E52BC39403500302CC
:101EC3001FBFE4F50EF50DF50CF50B852B09C3E5E6
:101ED3000964809480402AE50925E0247EF8E6FE23
:101EE30008E6FFEE3395E0FDFCE50E2FF50EE50D5C
:101EF3003EF50DE50C3DF50CE50B3CF50B150980A6
:101F0300CD787EE6FE08E68E0FF510F5828E83E42B
:101F1300F509AD09ED3395E0FCD3ED952B7480F80D
:101F23006C985036E50925E0247EF8E6FE08E6FFC6
:101F3300D3E5109FEE6480F8E50F64809850048E1B
:101F43000F8F10C3E5829FEE6480F8E58364809869
:101F530040048E838F82050980B8AE0FAF10AB07A4
:101F6300AA06EA3395E0F9F8C3E50E9BF50EE50DF5
:101F73009AF50DE50C99F50CE50B98F50BAE83AFCF
:101F830082AA06EA3395E0F9F8C3E50E9FF50EE55C
:101F93000D9AF50DE50C99F50CE50B98F50BE52B72
:101FA30024FFFFE434FFAB07FA3395E0F9F8AF0EF3
:101FB300AE0DAD0CAC0B1240B00221A7AE0FEE3349
:101FC30095E085100E8E0DF50CF50B0221AB78769E
:101FD3001235DCC3E50E9FFFE50D9EFEE50C9DFD6E
:101FE300E50B9CFC1241CFE47B207A4EF9F8C31237
:101FF300358F501EAF0EAE0DAD0CAC0B78B2123553
:10200300F5750908E50925E0247EF8E4F608F6D518
:1020130009F278B21235DCC3E50E9FF510E50D9E8B
:10202300F50F204417750908E50925E0247EF8A675
:102033000F08A610D509F1E4F52B8021750906E5F3
:102043000925E0247CF8E6FE08E6FFE50925E024FF
:102053007EF8A60608A607D509E5752B06787EA6A1
:102063000F08A610E4F509AD09ED3395E0FCD3EDB7
:10207300952B7480F86C98507BE4FFF511F512E50D
:102083002BFDEFFB3395E0FAD3EB9D7480F86A9850
:10209300503CEF65096034EF25E0247EF8E6FC0848
:1020A300E6FDE50925E0247EF8E6FA08E6FBC39D94
:1020B300EC6480F8EA64809840020511D3EB9DEC50
:1020C3006480F8EA648098500205120F80B1E52B12
:1020D300C313FFE511C39F4016E5129F4011E509A5
:1020E30025E0247EF8E6F50F08E6F510750964058A
:1020F3000902206A78761235DCC3E50E9FFFE50DF1
:102103009EFEE50C9DFDE50B9CFC1241CFE47BC8D4
:10211300FAF9F8C312358F5018750908E50925E057
:10212300247EF8A60F08A6101509E509B406ED806C
:1021330022750908E50925E0247CF8E6FE08E6FF98
:10214300E50925E0247EF8A60608A6071509E50992
:10215300B407E1788CA60F08A610E4F50EF50DF58B
:102163000CF50B750908E50925E0247EF8E6FE0861
:10217300E6FFEE3395E0FDFCE50E2FF50EE50D3E93
:10218300F50DE50C3DF50CE50B3CF50B1509E509E3
:10219300B406D3E47B02FAF9F8AF0EAE0DAD0CAC86
:1021A3000B1240B08E0F8F1078B21235DCAB07AA3A
:1021B30006A905A804AE0FEE3395E0FDFCE5102B50
:1021C300FFEE3AFEED39FDEC388F0E8E0D8D0CF5DA
:1021D3000BFC78761235F578B21235DCAB07AA061C
:1021E300A905A804C004C005C006C0077876123547
:1021F300DCD003D002D001D000C3EF9BFFEE9AFEE8
:10220300ED99FDEC98FC1241CFE47B407A06F9F896
:10221300C312358F40030222A278B21235DC7876DE
:102223001235E8D31235A5403878B21235DCEF24E5
:1022330040FFEE3406FEE43DFDE43CFC78B212358B
:10224300F5750908C3E50964809480408AE509258A
:10225300E0247FF874C026F61874F936F615098061
:10226300E378B21235DCC3EF9440FFEE9406FEED43
:102273009400FDEC9400FC78B21235F5750908C39F
:10228300E5096480948050030221DAE50925E024FE
:102293007FF8744026F618740636F6150980E07840
:1022A3006A12360D00000000E4784EF678B2A60AF2
:0122B3002208
:103EFA0078C01235DC78011235C98F158E148D13EE
:103F0A008C12785BE6C394805019AB15AA14A913D6
:103F1A00A812C000785BE6FFE4FCFDFED000123474
:103F2A0072801B785BE6547FF511AF15AE14AD13A2
:103F3A00AC12C007FBE4FAF9F8D0071234FD8F156A
:0F3F4A008E148D138C12AF15AE14AD13AC122262
:10405E008F0C8E0B8D0A8C09785BE6C39480500F03
:10406E00C007E6FBE4FAF9F8D0071234FD801578A4
:10407E005BE6547FFFAB0CAA0BA90AA809E4FCFD72
:10408E00FE1234728F0C8E0B8D0A8C09AF0CAE0B98
:10409E00AD0AAC0978011235B68F0C8E0B8D0A8CD9
:0240AE000922E5
:1030E60078661235DC78501235F5785B7601750B0B
:1030F6007FC24778C01235E8C00078501235DCD060
:10310600001234FD8E098F0AE4F50CE50C9041C7D8
:1031160093785BF6D3E50A941BE5099400401F7883
:10312600C01235E8C00078501235DCD0001234FDEC
:10313600C007785BE6FBE4FAF9F8D0078023C3E51D
:103146000A940EE50994004003023207785BE6FF15
:10315600E4FCFDFE78501235E812347278C0123560
:10316600E81234FD8E0D8F0EC3E50E940EE50D9418
:1031760000405ED3E50E941BE50D94005053E50E1A
:1031860024F2FFE50D34FFFE3395E0FDFC1241CF3E
:10319600A804A905AA06AB07AF0BE4FCFDFEC31203
:1031A600358F4015E50C9041C693785BF6E50A9499
:1031B6000EE5099400504A802FE50E24ECFFE50D3C
:1031C60034FFFE3395E0FDFC1241CF8F0BD24780D2
:1031D6002430471AE50C9041C693785BF6C3E50A9E
:1031E600940EE50994005019E64480F68013E50C28
:1031F600B40702D206050CE50CD39407500302313E
:1032060011123EFA78C41235F578C41235DC785CB2
:103216001235F57FE07E937D047C0078501235E808
:10322600D31235A5402378501235DCEF2420FFEE6B
:10323600346CFEED34FBFDEC34FFFCE47B107A27A6
:10324600F9F81234FD8F098003E4F5097850123538
:10325600E8E4FCFDFEEB2509FFEE3AFEED39FDEC58
:1032660038FC78501235F5E4FFFEFDFC78C41235C3
:10327600E8C31235A5700302339BE47BE07A2EF98E
:10328600F8C00078C41235DCD0001234FDE47B02AD
:10329600FAF9F81234FD78501235E8EF2BFFEE3AC2
:1032A600FEED39FDEC38FC78661235F578501236AD
:1032B6000D00000000E4F510F50FF50EF50D7FF09A
:1032C6007E497D027C0078661235E8C31235A5403A
:1032D6000E750C00750BD2750A4975096B8017E4DB
:1032E6007FE07E2EFDFC78661235E81234728F0C74
:1032F6008E0B8D0A8C09E50C2510F50CE50B350FA8
:10330600F50BE50A350EF50AE509350DF509785090
:103316001235E8C000C001C002C00378C41235E807
:10332600AF0CAE0BAD0AAC091234FDD003D002D0FF
:1033360001D000EB2FFFEA3EFEE93DFDE83CFC78BC
:10334600501235F578C41235E8AF0CAE0BAD0AACA9
:10335600091234FDAC00AD01AE02AF038F108E0F23
:103366008D0E8C0D7FF07E497D027C0078661235CD
:10337600E8C31235A5402078661235DCC3EF94F019
:10338600FFEE9449FEED9402FDEC9400FC78661283
:1033960035F50232C4D2067FC07E277D097C0078CF
:1033A600501235E8C31235A54003D20622E47F1039
:1033B6007E27FDFC78501235E8C31235A55003D29E
:0F33C6000622785BE6547FD394404002D2062261
:100FDC0078721235DCAB07AA06A905C004C005C09F
:100FEC0006C00778761235DCD003D002D001D000D1
:100FFC00C3EF9BF510EE9AF50FED99F50EEC98F505
:10100C000D335004D20B8002C20BAF10AE0FAD0EDD
:10101C00AC0D1241CF8F148E138D128C117FE07E8C
:10102C00937D047C00AB14AA13A912A811D312351A
:10103C00A54028E5142420FFE513346CFEE512349A
:10104C00FBFDE51134FFFCE47B107A27F9F8123430
:10105C00FD8F188E178D168C158009E4F518F51771
:10106C00F516F515E5182514F514E5173513F513D4
:10107C00E5163512F512E5153511F511851418859F
:10108C001317851216F515E4F519E519C3940240EA
:10109C0003021274E4F510F50FF50EF50D785012ED
:1010AC0035DCAB18AA17A916A815C31235A5403202
:1010BC0078501235E8C3E5189BF518E5179AF51723
:1010CC00E51699F516E51598F515E51024E0F510DB
:1010DC00E50F342EF50FE4350EF50EE4350DF50D58
:1010EC0080BBE47FE07E2EFDFCAB18AA17A916A8E6
:1010FC001512347278501235E81234FD8F188E1791
:10110C008D168C15E5102FF510E50F3EF50FE50E3D
:10111C003DF50EE50D3CF50DE51960030212497520
:10112C00190285100C850F0B850E0A850D0978A305
:10113C001235DCAB0CAA0BA90AA809C31235A560A1
:10114C0003D38001C3924720470302109630040357
:10115C00021096E4FFFEFDFCAB0CAA0BA90AA80931
:10116C00C31235A56029E4FFFEFDFC78A31235E817
:10117C00C31235A570197F0EFEFDFCAB14AA13A982
:10118C0012A811D31235A54003021096021262E484
:10119C00FFFEFDFCAB0CAA0BA90AA809C31235A5CE
:1011AC007039FFFEFDFC78A31235E8C31235A5603B
:1011BC002AE47F02FEFDFC78A31235E8D31235A594
:1011CC005019E47F07FEFDFCAB14AA13A912A81159
:1011DC00C31235A55003021096807B78A31235DC20
:1011EC00AB0CAA0BA90AA809C31235A5400302101F
:1011FC009678A31235DCC3EF950CF518EE950BF52C
:10120C0017ED950AF516EC9509F515E47F04FEFD2E
:10121C00FCAB18AA17A916A815D31235A5400302C2
:10122C001096751901E5142404F518E43513F51717
:10123C00E43512F516E43511F51502109675190200
:10124C00AF10AE0FAD0EAC0D78A31235E8D312353E
:10125C00A54003021096C24778A31235DC8F0C8E82
:10126C000B8D0A8C090210967857E6FE08E6FFE40F
:10127C008F148E13F512F511785BE6C39480501918
:10128C00AB14AA13A912A811C000785BE6FFE4FC0A
:10129C00FDFED000123472801B785BE6547FF5188B
:1012AC00AF14AE13AD12AC11C007FBE4FAF9F8D0D1
:1012BC00071234FD8F148E138D128C11AB0CAA0BEC
:1012CC00A90AA809C00078A31235DCD000C3EF9B93
:1012DC00FFEE9AFEED99FDEC98FC1241CFAB14AAEF
:1012EC0013A912A811C31235A54002C247203F749E
:1012FC0020476B20156878B606E6C3943C4029D28B
:10130C003FE47891F620315C787A1235DCE47B147A
:10131C00FAF9F81234FD787A1235F5D231E478B056
:10132C00F67864F608F6803C78B6E6C3942840203C
:10133C00203131787A1235DC78761235E8EF2BFFD4
:10134C00EE3AFEED39FDEC38FC787A1235F5801466
:10135C00203111787A12360D000000008006C23F51
:10136C00E478B6F678AC1235DCAB07AA06A905C052
:10137C0004C005C006C00778761235DCD003D00255
:10138C00D001D000C3EF9BF510EE9AF50FED99F557
:10139C000EEC98F50DAF10AE0FAD0EFC1241CFE474
:1013AC007B0AFAF9F8D312358F5006C23FE478B6AF
:1013BC00F6E4FFFEFDFC78A31235E8C31235A560F8
:1013CC0018E4FFFEFDFCAB0CAA0BA90AA809C3127A
:1013DC0035A57005C23F78B6F6303F4DAF1078900A
:1013EC00EFF6D364809480401208E66480948040C9
:1013FC0003068007E47891F678B6F6C37890E66435
:10140C00809480501208E664809480500316800704
:10141C00E47891F678B6F678B6E6D3941E500306C7
:10142C008007E478B6F67891F6303F247891E6FFA1
:10143C003395E0FEFDFC1241CFE47B07FAF9F8D3BB
:10144C0012358F500B78B6E6941E5004C23FE4F66A
:10145C00303F1220040FC24778A31235DC8F0C8E5C
:10146C000B8D0A8C097854E6F51608E6F517300F43
:10147C000FD39408E51694005006751600751708DE
:10148C00300B20AE16AF177C007D031233D58E16B1
:10149C008F17D3E5179408E51694005006751600BF
:1014AC00751708AE16AF17E4FCFDAB0CAA0BA90A16
:1014BC00A809C31235A55056C248E4F50CF50BF536
:1014CC000AF509052AE52AC394144002D24830488B
:1014DC0033E4F52A302416787A1235DC787212351A
:1014EC00F578761235DC787A1235F5800C78761230
:1014FC0035DC787A1235F5D22478A312360D00003B
:10150C000000C209D215C23FE478B6F68007E4F5B4
:10151C002AC215C224787A1235DCAB07AA06A905B3
:10152C00C004C005C006C00778761235DCD003D0E5
:10153C0002D001D000C3EF9BFFEE9AFEED99FDECBB
:10154C0098FC1241CF8F148E138D128C11E47F12E4
:10155C00FEFDFCAB14AA13A912A811C31235A540A9
:10156C000B303108C23FE478B6F6C231303003306C
:10157C001508C23FE478B6F6C23120310302166D6D
:10158C0078B006787A1235DCAB07AA06A905C00438
:10159C00C005C006C00778761235DCD003D002D067
:1015AC0001D000C3EF9BF510EE9AF50FED99F50EF7
:1015BC00EC98F50DAE0F7865E51026F618EE36F6BC
:1015CC0078B0E6C3943C500302166D7864E6FE08CE
:1015DC00E6FF7C007D3C12343C7864EEF608EFF6B6
:1015EC00C39403EE64809480402A78721235DCEF49
:1015FC002402FFE43EFEE43DFDE43CFC787212352F
:10160C00F5787A1235DCEF2402FFE43EFEE43DFD72
:10161C00E43C803ED37865E694FD18E66480947FC4
:10162C00503678721235DCC3EF9402FFEE9400FE54
:10163C00ED9400FDEC9400FC78721235F5787A127A
:10164C0035DCC3EF9402FFEE9400FEED9400FDEC4C
:10165C009400FC787A1235F5E478B0F67864F608E4
:10166C00F67860E6541C64046003021761AB0CAAA4
:10167C000BA90AA809C00078A31235DCD000C3EF6F
:10168C009BFFEE9AFEED99FDEC98FC1241CFE47BAA
:10169C0014FAF9F8C312358F500302198C20050F78
:1016AC00052CE52CC39414500302199C02181978CC
:1016BC00A31235DCAB0CAA0BA90AA809D31235A5C9
:1016CC00403130381E052C78A71235DCEF250CFF85
:1016DC00EE350BFEED350AFDEC3509FC78A712351D
:1016EC00F5800CE4F52C78A712360D00000000D222
:1016FC0038805278A31235DCAB0CAA0BA90AA809C6
:10170C00C31235A5503120381E052C78A71235DCB4
:10171C00EF250CFFEE350BFEED350AFDEC3509FC23
:10172C0078A71235F5800CE4F52C78A712360D004D
:10173C00000000C238800EE4F52C78A712360D009C
:10174C00000000C238E52CC39414500302197DE448
:10175C007B140219567860E6541C700302198CE451
:10176C007F64FEFDFCAB0CAA0BA90AA809C31235B9
:10177C00A5500302198C7860E6541CFFBF0808E4DE
:10178C00751096F50F80197860E6541CFFBF0C0994
:10179C00E475102C750F018007E47510D0750F07D8
:1017AC00F50EF50DAB0CAA0BA90AA809C00078A37D
:1017BC001235DCD000C3EF9BFFEE9AFEED99FDECE9
:1017CC0098FC1241CF8F148E138D128C11AF10AE6A
:1017DC000FAD0EAC0DAB14AA13A912A811D3123570
:1017EC00A5500330080302198C300503021894200D
:1017FC004403021885052C7860E6541C64086007C5
:10180C00E6541CFFBF0C1720300302199CE4F52C86
:10181C0078A712360D00000000D20502199CE52CA9
:10182C00D39414401A78A71235DCEF250CFFEE3553
:10183C000BFEED350AFDEC3509FC78A71235F5E504
:10184C002CC39432500302199CE47B1EFAF9F8C0A5
:10185C000078A71235DCD0001234FD8F0C8E0B8D66
:10186C000A8C09E4F52C78A712360D00000000D282
:10187C0005E4FF12000302199CE4F52C78A712363C
:10188C000D0000000002199C78A31235DCAB0CAAE9
:10189C000BA90AA809D31235A54038303825052CD8
:1018AC00E52CD39414402878A71235DCEF250CFFD7
:1018BC00EE350BFEED350AFDEC3509FC78A712353B
:1018CC00F5800CE4F52C78A712360D00000000D240
:1018DC0038805878A31235DCAB0CAA0BA90AA809DE
:1018EC00C31235A55037203824052CE52C94144010
:1018FC002878A71235DCEF250CFFEE350BFEED3505
:10190C000AFDEC3509FC78A71235F5800CE4F52CB2
:10191C0078A712360D00000000C238800EE4F52CBA
:10192C0078A712360D00000000C2383036127860ED
:10193C00E6541C6408602AE6541CFFBF0C0280218C
:10194C00E52CC39432402AE47B1EFAF9F8C00078E7
:10195C00A71235DCD0001234FD8F0C8E0B8D0A8C47
:10196C0009E4F52C78A712360D00000000C238806F
:10197C001F78A31235DC8F0C8E0B8D0A8C0980100E
:10198C00E4F52C78A712360D00000000C238C20511
:10199C007860E6541C601DE6541CFFBF0403D38022
:1019AC0001C34010E47514D0751307F512F51175C9
:1019BC001514800DE47514C8F513F512F511751591
:1019CC0006C3E544950CFFE543950BFEE542950AED
:1019DC00FDE5419509FC1241CFAB14AA13A912A83D
:1019EC0011C31235A5401B204429052EE52E951553
:1019FC004021D244850C44850B43850A428509411C
:101A0C008011850C44850B43850A42850941E4F518
:101A1C002EC244C233E4751403F513F512F5117894
:101A2C005BE6C39480502C7857E6FE08E6FFE4FC96
:101A3C00FDAB14AA13A912A811123472C004A90583
:101A4C00AA06AB07785BE6FFE4FCFDFED00012347F
:101A5C0072802B785BE6547FF5187857E6FE08E623
:101A6C00FFE4FCFDAB14AA13A912A811123472C026
:101A7C0007AF18AB07E4FAF9F8D0071234FD8F144E
:101A8C008E138D128C11AF14AE13AD12AC117801F4
:101A9C001235B68F148E138D128C11E47F207E4E6E
:101AAC00FDFCAB0CAA0BA90AA809C31235A540046E
:101ABC00D2098046AF14AE13AD12AC11AB0CAA0B0D
:101ACC00A90AA809D31235A54007303F2DC20980B9
:101ADC0029300926201523D233303F1EC2097876CF
:101AEC001235DC78721235F5C23FE478B6F6F50C97
:101AFC00F50BF50AF509D215D217AF0CAE0BAD0AE2
:071B0C00AC0978A30235F5D6
:1033D500EF8DF0A4A8F0CF8CF0A428CE8DF0A42E0C
:0233E500FE22C6
:1033E700BC000BBE0029EF8DF084FFADF022E4CCCA
:1033F700F875F008EF2FFFEE33FEEC33FCEE9DEC93
:10340700984005FCEE9DFE0FD5F0E9E4CEFD22EDD8
:10341700F8F5F0EE8420D21CFEADF075F008EF2F22
:10342700FFED33FD4007985006D5F0F222C398FD13
:053437000FD5F0EA22B0
:10343C00C2D5EC30E709B2D5E4C39DFDE49CFCEEAB
:10344C0030E715B2D5E4C39FFFE49EFE1233E7C309
:10345C00E49DFDE49CFC80031233E730D507C3E404
:06346C009FFFE49EFE221A
:10347200E88FF0A4CC8BF0A42CFCE98EF0A42CFCF9
:103482008AF0EDA42CFCEA8EF0A4CDA8F08BF0A477
:103492002DCC3825F0FDE98FF0A42CCD35F0FCEBD6
:1034A2008EF0A4FEA9F0EB8FF0A4CFC5F02ECD399B
:0F34B200FEE43CFCEAA42DCE35F0FDE43CFC2208
:1034C10075F008758200EF2FFFEE33FECD33CDCCC2
:1034D10033CCC58233C5829BED9AEC99E582984045
:1034E1000CF582EE9BFEED9AFDEC99FC0FD5F0D622
:1034F100E4CEFBE4CDFAE4CCF9A88222B800C1B94C
:103501000059BA002DEC8BF084CFCECDFCE5F0CB89
:10351100F97818EF2FFFEE33FEED33FDEC33FCEBC2
:1035210033FB10D703994004EB99FB0FD8E5E4F97D
:10353100FA227818EF2FFFEE33FEED33FDEC33FC6A
:10354100C933C910D7059BE99A4007EC9BFCE99A5E
:10355100F90FD8E0E4C9FAE4CCFB2275F010EF2FA3
:10356100FFEE33FEED33FDCC33CCC833C810D707A3
:103571009BEC9AE899400AED9BFDEC9AFCE899F8DE
:0E3581000FD5F0DAE4CDFBE4CCFAE4C8F92271
:1040B000C2D5E830E70FB2D5E4C39BFBE49AFAE43B
:1040C00099F9E498F8EC30E717B2D51240E61234CB
:1040D000FDE4C39BFBE49AFAE499F9E498F88003C1
:1040E0001234FD30D50DE4C39FFFE49EFEE49DFD38
:0440F000E49CFC222E
:10358F00EB9FF5F0EA9E42F0E99D42F0EC6480C8B3
:06359F0064809845F02253
:1035A500EB9FF5F0EA9E42F0E99D42F0E89C45F07C
:0135B50022F3
:1035B600E8600FECC313FCED13FDEE13FEEF13FFF3
:0335C600D8F12217
:1035C900E8600FEFC333FFEE33FEED33FDEC33FC60
:0335D900D8F12204
:0C35DC00E6FC08E6FD08E6FE08E6FF221B
:0D35E800E6FB08E6F908E6FA08E6CBF82253
:0C35F500ECF608EDF608EEF608EFF62202
:0C360100ECF0A3EDF0A3EEF0A3EFF0223C
:10360D00D083D082E493F608740193F60874029384
:09361D00F608740393F6740473BB
:10362600A8828583F0D083D08212363D12363D12B1
:10363600363D12363DE473E493A3C583C5F0C583D6
:10364600C8C582C8F0A3C583C5F0C583C8C582C8EE
:013656002251
:10365700D083D082F8E4937012740193700DA3A302
:1036670093F8740193F5828883E473740293686016
:06367700EFA3A3A380DF16
:10367D00EC8EF0A4CCC5F0CCCDF8EFA4CEC5F02DDA
:10368D00FDE43CFCE8A42EC8C5F03DFDE43CFCEF98
:0D369D00A4FFE5F028FEE43DFDE43CFC2226
:0841CF00EC30E7031236AA22CE
:0E36AA00C3E49FFFE49EFEE49DFDE49CFC2231
:00000001FF
